{
  "address": "0x0a3a9B53b696B664AD80B9034aDE1DbFFd0B25A0",
  "abi": [
    {
      "inputs": [
        {
          "internalType": "string",
          "name": "_name",
          "type": "string"
        },
        {
          "internalType": "string",
          "name": "_symbol",
          "type": "string"
        },
        {
          "internalType": "uint256",
          "name": "_cost",
          "type": "uint256"
        }
      ],
      "stateMutability": "nonpayable",
      "type": "constructor"
    },
    {
      "inputs": [],
      "name": "AiNft__BalanceIsZero",
      "type": "error"
    },
    {
      "inputs": [],
      "name": "AiNft__PaymentFailed",
      "type": "error"
    },
    {
      "inputs": [],
      "name": "AiNft__PaymentIsNotEnough",
      "type": "error"
    },
    {
      "anonymous": false,
      "inputs": [
        {
          "indexed": true,
          "internalType": "address",
          "name": "owner",
          "type": "address"
        },
        {
          "indexed": true,
          "internalType": "address",
          "name": "approved",
          "type": "address"
        },
        {
          "indexed": true,
          "internalType": "uint256",
          "name": "tokenId",
          "type": "uint256"
        }
      ],
      "name": "Approval",
      "type": "event"
    },
    {
      "anonymous": false,
      "inputs": [
        {
          "indexed": true,
          "internalType": "address",
          "name": "owner",
          "type": "address"
        },
        {
          "indexed": true,
          "internalType": "address",
          "name": "operator",
          "type": "address"
        },
        {
          "indexed": false,
          "internalType": "bool",
          "name": "approved",
          "type": "bool"
        }
      ],
      "name": "ApprovalForAll",
      "type": "event"
    },
    {
      "anonymous": false,
      "inputs": [
        {
          "indexed": true,
          "internalType": "uint256",
          "name": "tokenId",
          "type": "uint256"
        },
        {
          "indexed": false,
          "internalType": "address",
          "name": "to",
          "type": "address"
        }
      ],
      "name": "Minted",
      "type": "event"
    },
    {
      "anonymous": false,
      "inputs": [
        {
          "indexed": true,
          "internalType": "address",
          "name": "from",
          "type": "address"
        },
        {
          "indexed": true,
          "internalType": "address",
          "name": "to",
          "type": "address"
        },
        {
          "indexed": true,
          "internalType": "uint256",
          "name": "tokenId",
          "type": "uint256"
        }
      ],
      "name": "Transfer",
      "type": "event"
    },
    {
      "inputs": [
        {
          "internalType": "address",
          "name": "to",
          "type": "address"
        },
        {
          "internalType": "uint256",
          "name": "tokenId",
          "type": "uint256"
        }
      ],
      "name": "approve",
      "outputs": [],
      "stateMutability": "nonpayable",
      "type": "function"
    },
    {
      "inputs": [
        {
          "internalType": "address",
          "name": "owner",
          "type": "address"
        }
      ],
      "name": "balanceOf",
      "outputs": [
        {
          "internalType": "uint256",
          "name": "",
          "type": "uint256"
        }
      ],
      "stateMutability": "view",
      "type": "function"
    },
    {
      "inputs": [
        {
          "internalType": "uint256",
          "name": "tokenId",
          "type": "uint256"
        }
      ],
      "name": "getApproved",
      "outputs": [
        {
          "internalType": "address",
          "name": "",
          "type": "address"
        }
      ],
      "stateMutability": "view",
      "type": "function"
    },
    {
      "inputs": [],
      "name": "getCost",
      "outputs": [
        {
          "internalType": "uint256",
          "name": "",
          "type": "uint256"
        }
      ],
      "stateMutability": "view",
      "type": "function"
    },
    {
      "inputs": [],
      "name": "getOwner",
      "outputs": [
        {
          "internalType": "address",
          "name": "",
          "type": "address"
        }
      ],
      "stateMutability": "view",
      "type": "function"
    },
    {
      "inputs": [
        {
          "internalType": "address",
          "name": "owner",
          "type": "address"
        },
        {
          "internalType": "address",
          "name": "operator",
          "type": "address"
        }
      ],
      "name": "isApprovedForAll",
      "outputs": [
        {
          "internalType": "bool",
          "name": "",
          "type": "bool"
        }
      ],
      "stateMutability": "view",
      "type": "function"
    },
    {
      "inputs": [
        {
          "internalType": "string",
          "name": "tokenUri",
          "type": "string"
        }
      ],
      "name": "mintNft",
      "outputs": [],
      "stateMutability": "payable",
      "type": "function"
    },
    {
      "inputs": [],
      "name": "name",
      "outputs": [
        {
          "internalType": "string",
          "name": "",
          "type": "string"
        }
      ],
      "stateMutability": "view",
      "type": "function"
    },
    {
      "inputs": [
        {
          "internalType": "uint256",
          "name": "tokenId",
          "type": "uint256"
        }
      ],
      "name": "ownerOf",
      "outputs": [
        {
          "internalType": "address",
          "name": "",
          "type": "address"
        }
      ],
      "stateMutability": "view",
      "type": "function"
    },
    {
      "inputs": [
        {
          "internalType": "address",
          "name": "from",
          "type": "address"
        },
        {
          "internalType": "address",
          "name": "to",
          "type": "address"
        },
        {
          "internalType": "uint256",
          "name": "tokenId",
          "type": "uint256"
        }
      ],
      "name": "safeTransferFrom",
      "outputs": [],
      "stateMutability": "nonpayable",
      "type": "function"
    },
    {
      "inputs": [
        {
          "internalType": "address",
          "name": "from",
          "type": "address"
        },
        {
          "internalType": "address",
          "name": "to",
          "type": "address"
        },
        {
          "internalType": "uint256",
          "name": "tokenId",
          "type": "uint256"
        },
        {
          "internalType": "bytes",
          "name": "data",
          "type": "bytes"
        }
      ],
      "name": "safeTransferFrom",
      "outputs": [],
      "stateMutability": "nonpayable",
      "type": "function"
    },
    {
      "inputs": [
        {
          "internalType": "address",
          "name": "operator",
          "type": "address"
        },
        {
          "internalType": "bool",
          "name": "approved",
          "type": "bool"
        }
      ],
      "name": "setApprovalForAll",
      "outputs": [],
      "stateMutability": "nonpayable",
      "type": "function"
    },
    {
      "inputs": [
        {
          "internalType": "bytes4",
          "name": "interfaceId",
          "type": "bytes4"
        }
      ],
      "name": "supportsInterface",
      "outputs": [
        {
          "internalType": "bool",
          "name": "",
          "type": "bool"
        }
      ],
      "stateMutability": "view",
      "type": "function"
    },
    {
      "inputs": [],
      "name": "symbol",
      "outputs": [
        {
          "internalType": "string",
          "name": "",
          "type": "string"
        }
      ],
      "stateMutability": "view",
      "type": "function"
    },
    {
      "inputs": [
        {
          "internalType": "uint256",
          "name": "tokenId",
          "type": "uint256"
        }
      ],
      "name": "tokenURI",
      "outputs": [
        {
          "internalType": "string",
          "name": "",
          "type": "string"
        }
      ],
      "stateMutability": "view",
      "type": "function"
    },
    {
      "inputs": [],
      "name": "totalSupply",
      "outputs": [
        {
          "internalType": "uint256",
          "name": "",
          "type": "uint256"
        }
      ],
      "stateMutability": "view",
      "type": "function"
    },
    {
      "inputs": [
        {
          "internalType": "address",
          "name": "from",
          "type": "address"
        },
        {
          "internalType": "address",
          "name": "to",
          "type": "address"
        },
        {
          "internalType": "uint256",
          "name": "tokenId",
          "type": "uint256"
        }
      ],
      "name": "transferFrom",
      "outputs": [],
      "stateMutability": "nonpayable",
      "type": "function"
    },
    {
      "inputs": [],
      "name": "withdraw",
      "outputs": [],
      "stateMutability": "payable",
      "type": "function"
    }
  ],
  "transactionHash": "0xde1a9bed13cff55e359cadf13cc9e9952841e7b232617efcde9b049b52cb8d1d",
  "args": [
    "AiNft",
    "ANFT",
    "10000000000000000"
  ],
  "numDeployments": 1,
  "solcInputHash": "d93285598c321c1bf7727b49fb4518a4",
  "bytecode": "0x60806040523480156200001157600080fd5b50604051620034563803806200345683398181016040528101906200003791906200027e565b828281600090816200004a919062000559565b5080600190816200005c919062000559565b50505033600960006101000a81548173ffffffffffffffffffffffffffffffffffffffff021916908373ffffffffffffffffffffffffffffffffffffffff1602179055508060088190555050505062000640565b6000604051905090565b600080fd5b600080fd5b600080fd5b600080fd5b6000601f19601f8301169050919050565b7f4e487b7100000000000000000000000000000000000000000000000000000000600052604160045260246000fd5b6200011982620000ce565b810181811067ffffffffffffffff821117156200013b576200013a620000df565b5b80604052505050565b600062000150620000b0565b90506200015e82826200010e565b919050565b600067ffffffffffffffff821115620001815762000180620000df565b5b6200018c82620000ce565b9050602081019050919050565b60005b83811015620001b95780820151818401526020810190506200019c565b60008484015250505050565b6000620001dc620001d68462000163565b62000144565b905082815260208101848484011115620001fb57620001fa620000c9565b5b6200020884828562000199565b509392505050565b600082601f830112620002285762000227620000c4565b5b81516200023a848260208601620001c5565b91505092915050565b6000819050919050565b620002588162000243565b81146200026457600080fd5b50565b60008151905062000278816200024d565b92915050565b6000806000606084860312156200029a5762000299620000ba565b5b600084015167ffffffffffffffff811115620002bb57620002ba620000bf565b5b620002c98682870162000210565b935050602084015167ffffffffffffffff811115620002ed57620002ec620000bf565b5b620002fb8682870162000210565b92505060406200030e8682870162000267565b9150509250925092565b600081519050919050565b7f4e487b7100000000000000000000000000000000000000000000000000000000600052602260045260246000fd5b600060028204905060018216806200036b57607f821691505b60208210810362000381576200038062000323565b5b50919050565b60008190508160005260206000209050919050565b60006020601f8301049050919050565b600082821b905092915050565b600060088302620003eb7fffffffffffffffffffffffffffffffffffffffffffffffffffffffffffffffff82620003ac565b620003f78683620003ac565b95508019841693508086168417925050509392505050565b6000819050919050565b60006200043a620004346200042e8462000243565b6200040f565b62000243565b9050919050565b6000819050919050565b620004568362000419565b6200046e620004658262000441565b848454620003b9565b825550505050565b600090565b6200048562000476565b620004928184846200044b565b505050565b5b81811015620004ba57620004ae6000826200047b565b60018101905062000498565b5050565b601f8211156200050957620004d38162000387565b620004de846200039c565b81016020851015620004ee578190505b62000506620004fd856200039c565b83018262000497565b50505b505050565b600082821c905092915050565b60006200052e600019846008026200050e565b1980831691505092915050565b60006200054983836200051b565b9150826002028217905092915050565b620005648262000318565b67ffffffffffffffff81111562000580576200057f620000df565b5b6200058c825462000352565b62000599828285620004be565b600060209050601f831160018114620005d15760008415620005bc578287015190505b620005c885826200053b565b86555062000638565b601f198416620005e18662000387565b60005b828110156200060b57848901518255600182019150602085019450602081019050620005e4565b868310156200062b578489015162000627601f8916826200051b565b8355505b6001600288020188555050505b505050505050565b612e0680620006506000396000f3fe6080604052600436106101095760003560e01c806370a0823111610095578063b88d4fde11610064578063b88d4fde1461035c578063bd3e19d414610385578063c87b56dd146103b0578063da86f4a9146103ed578063e985e9c51461040957610109565b806370a08231146102a0578063893d20e8146102dd57806395d89b4114610308578063a22cb4651461033357610109565b806318160ddd116100dc57806318160ddd146101dc57806323b872dd146102075780633ccfd60b1461023057806342842e0e1461023a5780636352211e1461026357610109565b806301ffc9a71461010e57806306fdde031461014b578063081812fc14610176578063095ea7b3146101b3575b600080fd5b34801561011a57600080fd5b5061013560048036038101906101309190611cc2565b610446565b6040516101429190611d0a565b60405180910390f35b34801561015757600080fd5b50610160610528565b60405161016d9190611db5565b60405180910390f35b34801561018257600080fd5b5061019d60048036038101906101989190611e0d565b6105ba565b6040516101aa9190611e7b565b60405180910390f35b3480156101bf57600080fd5b506101da60048036038101906101d59190611ec2565b610600565b005b3480156101e857600080fd5b506101f1610717565b6040516101fe9190611f11565b60405180910390f35b34801561021357600080fd5b5061022e60048036038101906102299190611f2c565b610728565b005b610238610788565b005b34801561024657600080fd5b50610261600480360381019061025c9190611f2c565b6108aa565b005b34801561026f57600080fd5b5061028a60048036038101906102859190611e0d565b6108ca565b6040516102979190611e7b565b60405180910390f35b3480156102ac57600080fd5b506102c760048036038101906102c29190611f7f565b610950565b6040516102d49190611f11565b60405180910390f35b3480156102e957600080fd5b506102f2610a07565b6040516102ff9190611e7b565b60405180910390f35b34801561031457600080fd5b5061031d610a31565b60405161032a9190611db5565b60405180910390f35b34801561033f57600080fd5b5061035a60048036038101906103559190611fd8565b610ac3565b005b34801561036857600080fd5b50610383600480360381019061037e919061214d565b610ad9565b005b34801561039157600080fd5b5061039a610b3b565b6040516103a79190611f11565b60405180910390f35b3480156103bc57600080fd5b506103d760048036038101906103d29190611e0d565b610b45565b6040516103e49190611db5565b60405180910390f35b61040760048036038101906104029190612271565b610c57565b005b34801561041557600080fd5b50610430600480360381019061042b91906122ba565b610cfb565b60405161043d9190611d0a565b60405180910390f35b60007f80ac58cd000000000000000000000000000000000000000000000000000000007bffffffffffffffffffffffffffffffffffffffffffffffffffffffff1916827bffffffffffffffffffffffffffffffffffffffffffffffffffffffff1916148061051157507f5b5e139f000000000000000000000000000000000000000000000000000000007bffffffffffffffffffffffffffffffffffffffffffffffffffffffff1916827bffffffffffffffffffffffffffffffffffffffffffffffffffffffff1916145b80610521575061052082610d8f565b5b9050919050565b60606000805461053790612329565b80601f016020809104026020016040519081016040528092919081815260200182805461056390612329565b80156105b05780601f10610585576101008083540402835291602001916105b0565b820191906000526020600020905b81548152906001019060200180831161059357829003601f168201915b5050505050905090565b60006105c582610df9565b6004600083815260200190815260200160002060009054906101000a900473ffffffffffffffffffffffffffffffffffffffff169050919050565b600061060b826108ca565b90508073ffffffffffffffffffffffffffffffffffffffff168373ffffffffffffffffffffffffffffffffffffffff160361067b576040517f08c379a0000000000000000000000000000000000000000000000000000000008152600401610672906123cc565b60405180910390fd5b8073ffffffffffffffffffffffffffffffffffffffff1661069a610e44565b73ffffffffffffffffffffffffffffffffffffffff1614806106c957506106c8816106c3610e44565b610cfb565b5b610708576040517f08c379a00000000000000000000000000000000000000000000000000000000081526004016106ff9061245e565b60405180910390fd5b6107128383610e4c565b505050565b60006107236007610f05565b905090565b610739610733610e44565b82610f13565b610778576040517f08c379a000000000000000000000000000000000000000000000000000000000815260040161076f906124f0565b60405180910390fd5b610783838383610fa8565b505050565b60006107946007610f05565b036107cb576040517f668094b600000000000000000000000000000000000000000000000000000000815260040160405180910390fd5b6000600960009054906101000a900473ffffffffffffffffffffffffffffffffffffffff1673ffffffffffffffffffffffffffffffffffffffff163073ffffffffffffffffffffffffffffffffffffffff163160405161082a90612541565b60006040518083038185875af1925050503d8060008114610867576040519150601f19603f3d011682016040523d82523d6000602084013e61086c565b606091505b50509050806108a7576040517fa906ab3500000000000000000000000000000000000000000000000000000000815260040160405180910390fd5b50565b6108c583838360405180602001604052806000815250610ad9565b505050565b6000806108d6836112a1565b9050600073ffffffffffffffffffffffffffffffffffffffff168173ffffffffffffffffffffffffffffffffffffffff1603610947576040517f08c379a000000000000000000000000000000000000000000000000000000000815260040161093e906125a2565b60405180910390fd5b80915050919050565b60008073ffffffffffffffffffffffffffffffffffffffff168273ffffffffffffffffffffffffffffffffffffffff16036109c0576040517f08c379a00000000000000000000000000000000000000000000000000000000081526004016109b790612634565b60405180910390fd5b600360008373ffffffffffffffffffffffffffffffffffffffff1673ffffffffffffffffffffffffffffffffffffffff168152602001908152602001600020549050919050565b6000600960009054906101000a900473ffffffffffffffffffffffffffffffffffffffff16905090565b606060018054610a4090612329565b80601f0160208091040260200160405190810160405280929190818152602001828054610a6c90612329565b8015610ab95780601f10610a8e57610100808354040283529160200191610ab9565b820191906000526020600020905b815481529060010190602001808311610a9c57829003601f168201915b5050505050905090565b610ad5610ace610e44565b83836112de565b5050565b610aea610ae4610e44565b83610f13565b610b29576040517f08c379a0000000000000000000000000000000000000000000000000000000008152600401610b20906124f0565b60405180910390fd5b610b358484848461144a565b50505050565b6000600854905090565b6060610b5082610df9565b6000600660008481526020019081526020016000208054610b7090612329565b80601f0160208091040260200160405190810160405280929190818152602001828054610b9c90612329565b8015610be95780601f10610bbe57610100808354040283529160200191610be9565b820191906000526020600020905b815481529060010190602001808311610bcc57829003601f168201915b505050505090506000610bfa6114a6565b90506000815103610c0f578192505050610c52565b600082511115610c44578082604051602001610c2c929190612690565b60405160208183030381529060405292505050610c52565b610c4d846114bd565b925050505b919050565b600854341015610c93576040517f7c7ca70b00000000000000000000000000000000000000000000000000000000815260040160405180910390fd5b6000610c9f6007610f05565b9050610cab3382611525565b610cb58183611543565b807fb9203d657e9c0ec8274c818292ab0f58b04e1970050716891770eb1bab5d655e33604051610ce59190611e7b565b60405180910390a2610cf760076115b0565b5050565b6000600560008473ffffffffffffffffffffffffffffffffffffffff1673ffffffffffffffffffffffffffffffffffffffff16815260200190815260200160002060008373ffffffffffffffffffffffffffffffffffffffff1673ffffffffffffffffffffffffffffffffffffffff16815260200190815260200160002060009054906101000a900460ff16905092915050565b60007f01ffc9a7000000000000000000000000000000000000000000000000000000007bffffffffffffffffffffffffffffffffffffffffffffffffffffffff1916827bffffffffffffffffffffffffffffffffffffffffffffffffffffffff1916149050919050565b610e02816115c6565b610e41576040517f08c379a0000000000000000000000000000000000000000000000000000000008152600401610e38906125a2565b60405180910390fd5b50565b600033905090565b816004600083815260200190815260200160002060006101000a81548173ffffffffffffffffffffffffffffffffffffffff021916908373ffffffffffffffffffffffffffffffffffffffff160217905550808273ffffffffffffffffffffffffffffffffffffffff16610ebf836108ca565b73ffffffffffffffffffffffffffffffffffffffff167f8c5be1e5ebec7d5bd14f71427d1e84f3dd0314c0f7b2291e5b200ac8c7c3b92560405160405180910390a45050565b600081600001549050919050565b600080610f1f836108ca565b90508073ffffffffffffffffffffffffffffffffffffffff168473ffffffffffffffffffffffffffffffffffffffff161480610f615750610f608185610cfb565b5b80610f9f57508373ffffffffffffffffffffffffffffffffffffffff16610f87846105ba565b73ffffffffffffffffffffffffffffffffffffffff16145b91505092915050565b8273ffffffffffffffffffffffffffffffffffffffff16610fc8826108ca565b73ffffffffffffffffffffffffffffffffffffffff161461101e576040517f08c379a000000000000000000000000000000000000000000000000000000000815260040161101590612726565b60405180910390fd5b600073ffffffffffffffffffffffffffffffffffffffff168273ffffffffffffffffffffffffffffffffffffffff160361108d576040517f08c379a0000000000000000000000000000000000000000000000000000000008152600401611084906127b8565b60405180910390fd5b61109a8383836001611607565b8273ffffffffffffffffffffffffffffffffffffffff166110ba826108ca565b73ffffffffffffffffffffffffffffffffffffffff1614611110576040517f08c379a000000000000000000000000000000000000000000000000000000000815260040161110790612726565b60405180910390fd5b6004600082815260200190815260200160002060006101000a81549073ffffffffffffffffffffffffffffffffffffffff02191690556001600360008573ffffffffffffffffffffffffffffffffffffffff1673ffffffffffffffffffffffffffffffffffffffff168152602001908152602001600020600082825403925050819055506001600360008473ffffffffffffffffffffffffffffffffffffffff1673ffffffffffffffffffffffffffffffffffffffff16815260200190815260200160002060008282540192505081905550816002600083815260200190815260200160002060006101000a81548173ffffffffffffffffffffffffffffffffffffffff021916908373ffffffffffffffffffffffffffffffffffffffff160217905550808273ffffffffffffffffffffffffffffffffffffffff168473ffffffffffffffffffffffffffffffffffffffff167fddf252ad1be2c89b69c2b068fc378daa952ba7f163c4a11628f55a4df523b3ef60405160405180910390a461129c838383600161160d565b505050565b60006002600083815260200190815260200160002060009054906101000a900473ffffffffffffffffffffffffffffffffffffffff169050919050565b8173ffffffffffffffffffffffffffffffffffffffff168373ffffffffffffffffffffffffffffffffffffffff160361134c576040517f08c379a000000000000000000000000000000000000000000000000000000000815260040161134390612824565b60405180910390fd5b80600560008573ffffffffffffffffffffffffffffffffffffffff1673ffffffffffffffffffffffffffffffffffffffff16815260200190815260200160002060008473ffffffffffffffffffffffffffffffffffffffff1673ffffffffffffffffffffffffffffffffffffffff16815260200190815260200160002060006101000a81548160ff0219169083151502179055508173ffffffffffffffffffffffffffffffffffffffff168373ffffffffffffffffffffffffffffffffffffffff167f17307eab39ab6107e8899845ad3d59bd9653f200f220920489ca2b5937696c318360405161143d9190611d0a565b60405180910390a3505050565b611455848484610fa8565b61146184848484611613565b6114a0576040517f08c379a0000000000000000000000000000000000000000000000000000000008152600401611497906128b6565b60405180910390fd5b50505050565b606060405180602001604052806000815250905090565b60606114c882610df9565b60006114d26114a6565b905060008151116114f2576040518060200160405280600081525061151d565b806114fc8461179a565b60405160200161150d929190612690565b6040516020818303038152906040525b915050919050565b61153f828260405180602001604052806000815250611868565b5050565b61154c826115c6565b61158b576040517f08c379a000000000000000000000000000000000000000000000000000000000815260040161158290612948565b60405180910390fd5b806006600084815260200190815260200160002090816115ab9190612b14565b505050565b6001816000016000828254019250508190555050565b60008073ffffffffffffffffffffffffffffffffffffffff166115e8836112a1565b73ffffffffffffffffffffffffffffffffffffffff1614159050919050565b50505050565b50505050565b60006116348473ffffffffffffffffffffffffffffffffffffffff166118c3565b1561178d578373ffffffffffffffffffffffffffffffffffffffff1663150b7a0261165d610e44565b8786866040518563ffffffff1660e01b815260040161167f9493929190612c3b565b6020604051808303816000875af19250505080156116bb57506040513d601f19601f820116820180604052508101906116b89190612c9c565b60015b61173d573d80600081146116eb576040519150601f19603f3d011682016040523d82523d6000602084013e6116f0565b606091505b506000815103611735576040517f08c379a000000000000000000000000000000000000000000000000000000000815260040161172c906128b6565b60405180910390fd5b805181602001fd5b63150b7a0260e01b7bffffffffffffffffffffffffffffffffffffffffffffffffffffffff1916817bffffffffffffffffffffffffffffffffffffffffffffffffffffffff191614915050611792565b600190505b949350505050565b6060600060016117a9846118e6565b01905060008167ffffffffffffffff8111156117c8576117c7612022565b5b6040519080825280601f01601f1916602001820160405280156117fa5781602001600182028036833780820191505090505b509050600082602001820190505b60011561185d578080600190039150507f3031323334353637383961626364656600000000000000000000000000000000600a86061a8153600a858161185157611850612cc9565b5b04945060008503611808575b819350505050919050565b6118728383611a39565b61187f6000848484611613565b6118be576040517f08c379a00000000000000000000000000000000000000000000000000000000081526004016118b5906128b6565b60405180910390fd5b505050565b6000808273ffffffffffffffffffffffffffffffffffffffff163b119050919050565b600080600090507a184f03e93ff9f4daa797ed6e38ed64bf6a1f0100000000000000008310611944577a184f03e93ff9f4daa797ed6e38ed64bf6a1f010000000000000000838161193a57611939612cc9565b5b0492506040810190505b6d04ee2d6d415b85acef81000000008310611981576d04ee2d6d415b85acef8100000000838161197757611976612cc9565b5b0492506020810190505b662386f26fc1000083106119b057662386f26fc1000083816119a6576119a5612cc9565b5b0492506010810190505b6305f5e10083106119d9576305f5e10083816119cf576119ce612cc9565b5b0492506008810190505b61271083106119fe5761271083816119f4576119f3612cc9565b5b0492506004810190505b60648310611a215760648381611a1757611a16612cc9565b5b0492506002810190505b600a8310611a30576001810190505b80915050919050565b600073ffffffffffffffffffffffffffffffffffffffff168273ffffffffffffffffffffffffffffffffffffffff1603611aa8576040517f08c379a0000000000000000000000000000000000000000000000000000000008152600401611a9f90612d44565b60405180910390fd5b611ab1816115c6565b15611af1576040517f08c379a0000000000000000000000000000000000000000000000000000000008152600401611ae890612db0565b60405180910390fd5b611aff600083836001611607565b611b08816115c6565b15611b48576040517f08c379a0000000000000000000000000000000000000000000000000000000008152600401611b3f90612db0565b60405180910390fd5b6001600360008473ffffffffffffffffffffffffffffffffffffffff1673ffffffffffffffffffffffffffffffffffffffff16815260200190815260200160002060008282540192505081905550816002600083815260200190815260200160002060006101000a81548173ffffffffffffffffffffffffffffffffffffffff021916908373ffffffffffffffffffffffffffffffffffffffff160217905550808273ffffffffffffffffffffffffffffffffffffffff16600073ffffffffffffffffffffffffffffffffffffffff167fddf252ad1be2c89b69c2b068fc378daa952ba7f163c4a11628f55a4df523b3ef60405160405180910390a4611c5260008383600161160d565b5050565b6000604051905090565b600080fd5b600080fd5b60007fffffffff0000000000000000000000000000000000000000000000000000000082169050919050565b611c9f81611c6a565b8114611caa57600080fd5b50565b600081359050611cbc81611c96565b92915050565b600060208284031215611cd857611cd7611c60565b5b6000611ce684828501611cad565b91505092915050565b60008115159050919050565b611d0481611cef565b82525050565b6000602082019050611d1f6000830184611cfb565b92915050565b600081519050919050565b600082825260208201905092915050565b60005b83811015611d5f578082015181840152602081019050611d44565b60008484015250505050565b6000601f19601f8301169050919050565b6000611d8782611d25565b611d918185611d30565b9350611da1818560208601611d41565b611daa81611d6b565b840191505092915050565b60006020820190508181036000830152611dcf8184611d7c565b905092915050565b6000819050919050565b611dea81611dd7565b8114611df557600080fd5b50565b600081359050611e0781611de1565b92915050565b600060208284031215611e2357611e22611c60565b5b6000611e3184828501611df8565b91505092915050565b600073ffffffffffffffffffffffffffffffffffffffff82169050919050565b6000611e6582611e3a565b9050919050565b611e7581611e5a565b82525050565b6000602082019050611e906000830184611e6c565b92915050565b611e9f81611e5a565b8114611eaa57600080fd5b50565b600081359050611ebc81611e96565b92915050565b60008060408385031215611ed957611ed8611c60565b5b6000611ee785828601611ead565b9250506020611ef885828601611df8565b9150509250929050565b611f0b81611dd7565b82525050565b6000602082019050611f266000830184611f02565b92915050565b600080600060608486031215611f4557611f44611c60565b5b6000611f5386828701611ead565b9350506020611f6486828701611ead565b9250506040611f7586828701611df8565b9150509250925092565b600060208284031215611f9557611f94611c60565b5b6000611fa384828501611ead565b91505092915050565b611fb581611cef565b8114611fc057600080fd5b50565b600081359050611fd281611fac565b92915050565b60008060408385031215611fef57611fee611c60565b5b6000611ffd85828601611ead565b925050602061200e85828601611fc3565b9150509250929050565b600080fd5b600080fd5b7f4e487b7100000000000000000000000000000000000000000000000000000000600052604160045260246000fd5b61205a82611d6b565b810181811067ffffffffffffffff8211171561207957612078612022565b5b80604052505050565b600061208c611c56565b90506120988282612051565b919050565b600067ffffffffffffffff8211156120b8576120b7612022565b5b6120c182611d6b565b9050602081019050919050565b82818337600083830152505050565b60006120f06120eb8461209d565b612082565b90508281526020810184848401111561210c5761210b61201d565b5b6121178482856120ce565b509392505050565b600082601f83011261213457612133612018565b5b81356121448482602086016120dd565b91505092915050565b6000806000806080858703121561216757612166611c60565b5b600061217587828801611ead565b945050602061218687828801611ead565b935050604061219787828801611df8565b925050606085013567ffffffffffffffff8111156121b8576121b7611c65565b5b6121c48782880161211f565b91505092959194509250565b600067ffffffffffffffff8211156121eb576121ea612022565b5b6121f482611d6b565b9050602081019050919050565b600061221461220f846121d0565b612082565b9050828152602081018484840111156122305761222f61201d565b5b61223b8482856120ce565b509392505050565b600082601f83011261225857612257612018565b5b8135612268848260208601612201565b91505092915050565b60006020828403121561228757612286611c60565b5b600082013567ffffffffffffffff8111156122a5576122a4611c65565b5b6122b184828501612243565b91505092915050565b600080604083850312156122d1576122d0611c60565b5b60006122df85828601611ead565b92505060206122f085828601611ead565b9150509250929050565b7f4e487b7100000000000000000000000000000000000000000000000000000000600052602260045260246000fd5b6000600282049050600182168061234157607f821691505b602082108103612354576123536122fa565b5b50919050565b7f4552433732313a20617070726f76616c20746f2063757272656e74206f776e6560008201527f7200000000000000000000000000000000000000000000000000000000000000602082015250565b60006123b6602183611d30565b91506123c18261235a565b604082019050919050565b600060208201905081810360008301526123e5816123a9565b9050919050565b7f4552433732313a20617070726f76652063616c6c6572206973206e6f7420746f60008201527f6b656e206f776e6572206f7220617070726f76656420666f7220616c6c000000602082015250565b6000612448603d83611d30565b9150612453826123ec565b604082019050919050565b600060208201905081810360008301526124778161243b565b9050919050565b7f4552433732313a2063616c6c6572206973206e6f7420746f6b656e206f776e6560008201527f72206f7220617070726f76656400000000000000000000000000000000000000602082015250565b60006124da602d83611d30565b91506124e58261247e565b604082019050919050565b60006020820190508181036000830152612509816124cd565b9050919050565b600081905092915050565b50565b600061252b600083612510565b91506125368261251b565b600082019050919050565b600061254c8261251e565b9150819050919050565b7f4552433732313a20696e76616c696420746f6b656e2049440000000000000000600082015250565b600061258c601883611d30565b915061259782612556565b602082019050919050565b600060208201905081810360008301526125bb8161257f565b9050919050565b7f4552433732313a2061646472657373207a65726f206973206e6f74206120766160008201527f6c6964206f776e65720000000000000000000000000000000000000000000000602082015250565b600061261e602983611d30565b9150612629826125c2565b604082019050919050565b6000602082019050818103600083015261264d81612611565b9050919050565b600081905092915050565b600061266a82611d25565b6126748185612654565b9350612684818560208601611d41565b80840191505092915050565b600061269c828561265f565b91506126a8828461265f565b91508190509392505050565b7f4552433732313a207472616e736665722066726f6d20696e636f72726563742060008201527f6f776e6572000000000000000000000000000000000000000000000000000000602082015250565b6000612710602583611d30565b915061271b826126b4565b604082019050919050565b6000602082019050818103600083015261273f81612703565b9050919050565b7f4552433732313a207472616e7366657220746f20746865207a65726f2061646460008201527f7265737300000000000000000000000000000000000000000000000000000000602082015250565b60006127a2602483611d30565b91506127ad82612746565b604082019050919050565b600060208201905081810360008301526127d181612795565b9050919050565b7f4552433732313a20617070726f766520746f2063616c6c657200000000000000600082015250565b600061280e601983611d30565b9150612819826127d8565b602082019050919050565b6000602082019050818103600083015261283d81612801565b9050919050565b7f4552433732313a207472616e7366657220746f206e6f6e20455243373231526560008201527f63656976657220696d706c656d656e7465720000000000000000000000000000602082015250565b60006128a0603283611d30565b91506128ab82612844565b604082019050919050565b600060208201905081810360008301526128cf81612893565b9050919050565b7f45524337323155524953746f726167653a2055524920736574206f66206e6f6e60008201527f6578697374656e7420746f6b656e000000000000000000000000000000000000602082015250565b6000612932602e83611d30565b915061293d826128d6565b604082019050919050565b6000602082019050818103600083015261296181612925565b9050919050565b60008190508160005260206000209050919050565b60006020601f8301049050919050565b600082821b905092915050565b6000600883026129ca7fffffffffffffffffffffffffffffffffffffffffffffffffffffffffffffffff8261298d565b6129d4868361298d565b95508019841693508086168417925050509392505050565b6000819050919050565b6000612a11612a0c612a0784611dd7565b6129ec565b611dd7565b9050919050565b6000819050919050565b612a2b836129f6565b612a3f612a3782612a18565b84845461299a565b825550505050565b600090565b612a54612a47565b612a5f818484612a22565b505050565b5b81811015612a8357612a78600082612a4c565b600181019050612a65565b5050565b601f821115612ac857612a9981612968565b612aa28461297d565b81016020851015612ab1578190505b612ac5612abd8561297d565b830182612a64565b50505b505050565b600082821c905092915050565b6000612aeb60001984600802612acd565b1980831691505092915050565b6000612b048383612ada565b9150826002028217905092915050565b612b1d82611d25565b67ffffffffffffffff811115612b3657612b35612022565b5b612b408254612329565b612b4b828285612a87565b600060209050601f831160018114612b7e5760008415612b6c578287015190505b612b768582612af8565b865550612bde565b601f198416612b8c86612968565b60005b82811015612bb457848901518255600182019150602085019450602081019050612b8f565b86831015612bd15784890151612bcd601f891682612ada565b8355505b6001600288020188555050505b505050505050565b600081519050919050565b600082825260208201905092915050565b6000612c0d82612be6565b612c178185612bf1565b9350612c27818560208601611d41565b612c3081611d6b565b840191505092915050565b6000608082019050612c506000830187611e6c565b612c5d6020830186611e6c565b612c6a6040830185611f02565b8181036060830152612c7c8184612c02565b905095945050505050565b600081519050612c9681611c96565b92915050565b600060208284031215612cb257612cb1611c60565b5b6000612cc084828501612c87565b91505092915050565b7f4e487b7100000000000000000000000000000000000000000000000000000000600052601260045260246000fd5b7f4552433732313a206d696e7420746f20746865207a65726f2061646472657373600082015250565b6000612d2e602083611d30565b9150612d3982612cf8565b602082019050919050565b60006020820190508181036000830152612d5d81612d21565b9050919050565b7f4552433732313a20746f6b656e20616c7265616479206d696e74656400000000600082015250565b6000612d9a601c83611d30565b9150612da582612d64565b602082019050919050565b60006020820190508181036000830152612dc981612d8d565b905091905056fea26469706673582212208fc5809c4bb450c0930f6d12ca3fcd6ee9a0a996b12852723efc09174fa038a064736f6c63430008120033",
  "devdoc": {
    "events": {
      "Approval(address,address,uint256)": {
        "details": "Emitted when `owner` enables `approved` to manage the `tokenId` token."
      },
      "ApprovalForAll(address,address,bool)": {
        "details": "Emitted when `owner` enables or disables (`approved`) `operator` to manage all of its assets."
      },
      "Transfer(address,address,uint256)": {
        "details": "Emitted when `tokenId` token is transferred from `from` to `to`."
      }
    },
    "kind": "dev",
    "methods": {
      "approve(address,uint256)": {
        "details": "See {IERC721-approve}."
      },
      "balanceOf(address)": {
        "details": "See {IERC721-balanceOf}."
      },
      "getApproved(uint256)": {
        "details": "See {IERC721-getApproved}."
      },
      "isApprovedForAll(address,address)": {
        "details": "See {IERC721-isApprovedForAll}."
      },
      "name()": {
        "details": "See {IERC721Metadata-name}."
      },
      "ownerOf(uint256)": {
        "details": "See {IERC721-ownerOf}."
      },
      "safeTransferFrom(address,address,uint256)": {
        "details": "See {IERC721-safeTransferFrom}."
      },
      "safeTransferFrom(address,address,uint256,bytes)": {
        "details": "See {IERC721-safeTransferFrom}."
      },
      "setApprovalForAll(address,bool)": {
        "details": "See {IERC721-setApprovalForAll}."
      },
      "supportsInterface(bytes4)": {
        "details": "See {IERC165-supportsInterface}."
      },
      "symbol()": {
        "details": "See {IERC721Metadata-symbol}."
      },
      "tokenURI(uint256)": {
        "details": "See {IERC721Metadata-tokenURI}."
      },
      "transferFrom(address,address,uint256)": {
        "details": "See {IERC721-transferFrom}."
      }
    },
    "version": 1
  },
  "userdoc": {
    "kind": "user",
    "methods": {},
    "version": 1
  },
  "storageLayout": {
    "storage": [
      {
        "astId": 25,
        "contract": "contracts/AiNft.sol:AiNft",
        "label": "_name",
        "offset": 0,
        "slot": "0",
        "type": "t_string_storage"
      },
      {
        "astId": 27,
        "contract": "contracts/AiNft.sol:AiNft",
        "label": "_symbol",
        "offset": 0,
        "slot": "1",
        "type": "t_string_storage"
      },
      {
        "astId": 31,
        "contract": "contracts/AiNft.sol:AiNft",
        "label": "_owners",
        "offset": 0,
        "slot": "2",
        "type": "t_mapping(t_uint256,t_address)"
      },
      {
        "astId": 35,
        "contract": "contracts/AiNft.sol:AiNft",
        "label": "_balances",
        "offset": 0,
        "slot": "3",
        "type": "t_mapping(t_address,t_uint256)"
      },
      {
        "astId": 39,
        "contract": "contracts/AiNft.sol:AiNft",
        "label": "_tokenApprovals",
        "offset": 0,
        "slot": "4",
        "type": "t_mapping(t_uint256,t_address)"
      },
      {
        "astId": 45,
        "contract": "contracts/AiNft.sol:AiNft",
        "label": "_operatorApprovals",
        "offset": 0,
        "slot": "5",
        "type": "t_mapping(t_address,t_mapping(t_address,t_bool))"
      },
      {
        "astId": 1073,
        "contract": "contracts/AiNft.sol:AiNft",
        "label": "_tokenURIs",
        "offset": 0,
        "slot": "6",
        "type": "t_mapping(t_uint256,t_string_storage)"
      },
      {
        "astId": 2734,
        "contract": "contracts/AiNft.sol:AiNft",
        "label": "s_tokenIds",
        "offset": 0,
        "slot": "7",
        "type": "t_struct(Counter)1570_storage"
      },
      {
        "astId": 2736,
        "contract": "contracts/AiNft.sol:AiNft",
        "label": "s_cost",
        "offset": 0,
        "slot": "8",
        "type": "t_uint256"
      },
      {
        "astId": 2738,
        "contract": "contracts/AiNft.sol:AiNft",
        "label": "s_owner",
        "offset": 0,
        "slot": "9",
        "type": "t_address"
      }
    ],
    "types": {
      "t_address": {
        "encoding": "inplace",
        "label": "address",
        "numberOfBytes": "20"
      },
      "t_bool": {
        "encoding": "inplace",
        "label": "bool",
        "numberOfBytes": "1"
      },
      "t_mapping(t_address,t_bool)": {
        "encoding": "mapping",
        "key": "t_address",
        "label": "mapping(address => bool)",
        "numberOfBytes": "32",
        "value": "t_bool"
      },
      "t_mapping(t_address,t_mapping(t_address,t_bool))": {
        "encoding": "mapping",
        "key": "t_address",
        "label": "mapping(address => mapping(address => bool))",
        "numberOfBytes": "32",
        "value": "t_mapping(t_address,t_bool)"
      },
      "t_mapping(t_address,t_uint256)": {
        "encoding": "mapping",
        "key": "t_address",
        "label": "mapping(address => uint256)",
        "numberOfBytes": "32",
        "value": "t_uint256"
      },
      "t_mapping(t_uint256,t_address)": {
        "encoding": "mapping",
        "key": "t_uint256",
        "label": "mapping(uint256 => address)",
        "numberOfBytes": "32",
        "value": "t_address"
      },
      "t_mapping(t_uint256,t_string_storage)": {
        "encoding": "mapping",
        "key": "t_uint256",
        "label": "mapping(uint256 => string)",
        "numberOfBytes": "32",
        "value": "t_string_storage"
      },
      "t_string_storage": {
        "encoding": "bytes",
        "label": "string",
        "numberOfBytes": "32"
      },
      "t_struct(Counter)1570_storage": {
        "encoding": "inplace",
        "label": "struct Counters.Counter",
        "members": [
          {
            "astId": 1569,
            "contract": "contracts/AiNft.sol:AiNft",
            "label": "_value",
            "offset": 0,
            "slot": "0",
            "type": "t_uint256"
          }
        ],
        "numberOfBytes": "32"
      },
      "t_uint256": {
        "encoding": "inplace",
        "label": "uint256",
        "numberOfBytes": "32"
      }
    }
  }
}